:100000000C9454000C945E000C945E000C945E0002
:100010000C945E000C945E000C945E000C945E00E8
:100020000C945E000C945E000C945E000C945E00D8
:100030000C945E000C945E000C945E000C945E00C8
:100040000C945E000C945E000C945E000C945E00B8
:100050000C945E000C945E000C945E000C945E00A8
:100060000C945E000C945E0000040005000600077E
:1000700001000A0A005541525420696E6974696191
:100080007465640A000A45544845524E455420544C
:10009000455354203E2050524F4752414D20535417
:1000A00041525445440A000011241FBECFEFD8E04E
:1000B000DEBFCDBF0E949C020C9406030C9400008E
:1000C0001092C5008FEC8093C40088E18093C1003A
:1000D00086E08093C20008958091C00087FFFCCF26
:1000E0008091C60008959091C00095FFFCCF809349
:1000F000C6000895EF92FF92CF93DF93E82EE701B9
:100100007E01F92EE70102C00E94730089918823C5
:10011000D9F7DF91CF91FF90EF9008950F931F9340
:10012000DF93CF9300D000D000D0CDB7DEB78E01E3
:100130000F5F1F4FB8014AE050E00E94C102C801A2
:100140000E947A0026960FB6F894DEBF0FBECDBF90
:10015000CF91DF911F910F910895CF92DF92EF928F
:10016000FF920F931F93DF93CF9300D00F92CDB7E1
:10017000DEB76C018B017E010894E11CF11C11C0FB
:10018000F60181916F0190E0B70140E150E00E94DB
:10019000C102C7010E947A0080E20E9473000150F0
:1001A00010400115110561F70F900F900F90CF913E
:1001B000DF911F910F91FF90EF90DF90CF90089506
:1001C000CF92DF92EF92FF920F931F93DF93CF9323
:1001D000CDB7DEB728970FB6F894DEBF0FBECDBF00
:1001E0006C018B017E010894E11CF11C11C0F60129
:1001F00081916F0190E0B70142E050E00E94C1029E
:10020000C7010E947A0080E20E94730001501040F2
:100210000115110561F728960FB6F894DEBF0FBEE1
:10022000CDBFCF91DF911F910F91FF90EF90DF90A5
:10023000CF900895CF93DF93EC0102C00E9473002A
:10024000FE01219684918823C9F7DF91CF9108950B
:1002500084B18C6284B924982A9A8CB580658CBD4F
:100260008CB58F7D8CBD08958EBD0DB407FEFDCF7E
:100270008EB508951F93DF93CF930F92CDB7DEB75E
:10028000182F229A2A9880EF69830E943401812FC7
:100290000E9434016981862F0E94340180E00E940F
:1002A0003401229A2A9A0F90CF91DF911F910895DD
:1002B0001F93DF93CF9300D0CDB7DEB7182F229ACC
:1002C0002A9880EF4A8369830E943401812F0E941B
:1002D00034016981862F0E9434014A81842F0E9453
:1002E0003401229A2A9A0F900F90CF91DF911F919B
:1002F00008951F93DF93CF930F92CDB7DEB7182FDA
:10030000229A2A9880EF99830E9434019981892F3B
:100310000E943401812F0E94340180E00E94340148
:10032000229A2A9A0F90CF91DF911F9108951F93DF
:10033000DF93CF9300D0CDB7DEB7182F229A2A983B
:1003400080EF6A8399830E9434019981892F0E94EA
:100350003401812F0E9434016A81862F0E9434016A
:10036000229A2A9A0F900F90CF91DF911F910895B2
:10037000CF92DF92EF92FF920F931F93CF93DF9371
:100380006C01EA01229A2A98E62EF72E00E010E08E
:1003900014C08FE00E9434018D2D0E9434018C2DF9
:1003A0000E94340180E00E943401F70181937F01B3
:1003B0000894C11CD11C0F5F1F4F0C171D0748F379
:1003C000229A2A9ACE01DF91CF911F910F91FF902F
:1003D000EF90DF90CF900895CF92DF92EF92FF924F
:1003E0000F931F93CF93DF936C01EA01229A2A980F
:1003F000E62EF72E00E010E013C080EF0E943401DB
:100400008D2D0E9434018C2D0E943401F7018191C1
:100410007F010E9434010894C11CD11C0F5F1F4F43
:100420000C171D0750F3229A2A9ACE01DF91CF9123
:100430001F910F91FF90EF90DF90CF900895AF92B2
:10044000BF92CF92DF92EF92FF920F931F93DF93B1
:10045000CF930F92CDB7DEB7D82E229A2A98E42EEA
:10046000F52EAA24BB24022F10E014C08FE069836C
:100470000E9434018D2D0E9434018C2D0E94340184
:1004800080E00E943401F70181937F010894A11C50
:10049000B11C6981CA2CC60EA016B10638F3229A87
:1004A0002A9AC8010F90CF91DF911F910F91FF9071
:1004B000EF90DF90CF90BF90AF900895AF92BF9232
:1004C000CF92DF92EF92FF920F931F93DF93CF9320
:1004D0000F92CDB7DEB7D82E229A2A98E42EF52EA9
:1004E000AA24BB24022F10E013C080EF69830E946E
:1004F00034018D2D0E9434018C2D0E943401F701AE
:1005000081917F010E9434010894A11CB11C698172
:10051000CA2CC60EA016B10640F3229A2A9AC80128
:100520000F90CF91DF911F910F91FF90EF90DF908F
:10053000CF90BF90AF900895DF93CF9300D0CDB709
:10054000DEB70E94600085E890E00E941A0185E70E
:1005500090E00E941A010E94280119828FEF8A837D
:10056000CE01019662E070E00E94AD0082E790E06B
:100570000E941A01E0E7F0E0849190E00E948E0072
:10058000FFCFFB019F01E8944230C4F04532B4F440
:100590004A3029F497FB1EF4909581959F4F642F64
:1005A00077270E94F202805D8A330CF0895D819387
:1005B000CB010097A1F716F45DE251931082C901B7
:1005C0000C94E202DC01FC01672F71917723E1F7C3
:1005D000329704C07C916D9370836291AE17BF0710
:1005E000C8F30895AA1BBB1B51E107C0AA1FBB1F7C
:1005F000A617B70710F0A61BB70B881F991F5A95AF
:10060000A9F780959095BC01CD010895F894FFCF8E
:00000001FF
